:100000000C9434000C943E000C943E000C943E0082
:100010000C943E000C943E000C943E000C943E0068
:100020000C943E000C943E000C943E000C943E0058
:100030000C943E000C943E000C943E000C943E0048
:100040000C943E000C943E000C943E000C943E0038
:100050000C943E000C943E000C943E000C943E0028
:100060000C943E000C943E0011241FBECFEFD8E04C
:10007000DEBFCDBF0E94AD000C9405030C940000C0
:10008000CF93DF93CDB7DEB784E290E024E230E097
:10009000F90120812C62FC01208385E290E025E2B9
:1000A00030E0F90120812460FC0120838CE490E0A1
:1000B0002CE430E0F90120812365FC01208300005D
:1000C000DF91CF910895CF93DF93CDB7DEB785E26F
:1000D00090E025E230E0F90120812B7FFC012083B4
:1000E0008EE490E028E0FC01208300008DE490E0A5
:1000F000FC0180818823D4F78EE490E0FC0110821B
:1001000000008DE490E0FC0180818823D4F78EE428
:1001100090E0FC01108200008DE490E0FC01808101
:100120008823D4F78EE490E0FC01108200008DE477
:1001300090E0FC0180818823D4F785E290E025E2FD
:1001400030E0F90120812460FC0120838EE490E0FE
:10015000FC018081DF91CF910895CF93DF93CDB7DC
:10016000DEB760970FB6F894DEBF0FBECDBF0E941A
:10017000400084E290E024E230E0F9012081226036
:10018000FC01208385E290E025E230E0F901208146
:100190002D7FFC0120830E946300882F90E09A83CA
:1001A000898389819A81019751F485E290E025E263
:1001B00030E0F90120812260FC01208309C085E242
:1001C00090E025E230E0F90120812D7FFC012083C1
:1001D00080E090E0AAE7B4E48B839C83AD83BE8388
:1001E00020E030E04AE755E46B817C818D819E817F
:1001F0000E947002DC01CB018F839887A987BA87A0
:1002000020E030E040E85FE36F81788589859A855A
:100210000E94EA0188232CF481E090E09C878B8780
:100220003FC020E03FEF4FE757E46F817885898535
:100230009A850E946B0218164CF520E030E040E2EF
:1002400051E46B817C818D819E810E947002DC0172
:10025000CB01BC01CD010E94EF01DC01CB019C87E9
:100260008B870FC080E991E09E878D878D859E8565
:100270000197F1F79E878D878B859C8501979C87D9
:100280008B878B859C85892B69F714C06F81788556
:1002900089859A850E94EF01DC01CB019C878B87C1
:1002A0008B859C85988B8F878F8598890197F1F72F
:1002B000988B8F8770CFCF93DF93CDB7DEB78CE766
:1002C00090E02CE730E0F90120812064FC012083DC
:1002D0008AE790E02AE730E0F90120812360FC0101
:1002E00020838AE790E02AE730E0F9012081206846
:1002F000FC0120830000DF91CF910895CF93DF931D
:10030000CDB7DEB78AE790E02AE730E0F901208137
:100310002064FC0120838AE790E0FC018081882F23
:1003200090E080749927892BB1F788E790E0FC0171
:1003300080819181DF91CF910895CF93DF93CDB7E5
:10034000DEB784E290E024E230E0F901208122600F
:10035000FC01208380E890E020E830E0F901208172
:100360002160FC01208381E890E021E830E0F90180
:1003700020812860FC01208381E890E021E830E0C2
:10038000F90120812260FC01208380E890E020E8D0
:1003900030E0F90120812068FC01208388E890E0AA
:1003A000FC01118210820000DF91CF910895CF935C
:1003B000DF931F92CDB7DEB7898388E890E029816B
:1003C000222F30E0FC013183208300000F90DF9169
:1003D000CF9108950E941E0208F481E008950E94C2
:1003E0004A0288F09F5798F0B92F9927B751B0F07B
:1003F000E1F0660F771F881F991F1AF0BA95C9F7A9
:1004000014C0B13091F00E946402B1E008950C94E0
:100410006402672F782F8827B85F39F0B93FCCF393
:10042000869577956795B395D9F73EF49095809525
:10043000709561957F4F8F4F9F4F0895990F0008DA
:10044000550FAA0BE0E8FEEF16161706E807F907A6
:10045000C0F012161306E407F50798F0621B730B41
:10046000840B950B39F40A2661F0232B242B252BC2
:1004700021F408950A2609F4A140A6958FEF811D65
:10048000811D089557FD9058440F551F59F05F3F47
:1004900071F04795880F97FB991F61F09F3F79F0A6
:1004A00087950895121613061406551FF2CF469528
:1004B000F1DF08C0161617061806991FF1CF8695AA
:1004C0007105610508940895E894BB27662777278E
:1004D000CB0197F908950E941E0208F48FEF08954A
:1004E0000E9483020C94F4020E94E60238F00E94FB
:1004F000ED0220F0952311F00C94DD020C94E30240
:1005000011240C9465020E94420270F3959FC1F37E
:10051000950F50E0551F629FF001729FBB27F00DB1
:10052000B11D639FAA27F00DB11DAA1F649F662706
:10053000B00DA11D661F829F2227B00DA11D621F55
:10054000739FB00DA11D621F839FA00D611D221F0F
:10055000749F3327A00D611D231F849F600D211DF3
:10056000822F762F6A2F11249F5750409AF0F1F076
:1005700088234AF0EE0FFF1FBB1F661F771F881FDF
:1005800091505040A9F79E3F510580F00C94DD0238
:100590000C9465025F3FE4F3983ED4F3869577951B
:1005A0006795B795F795E7959F5FC1F7FE2B880F85
:1005B000911D9695879597F9089597F99F6780E81B
:1005C00070E060E008959FEF80EC089500240A94A5
:1005D0001616170618060906089500240A9412161E
:1005E0001306140605060895092E0394000C11F451
:1005F000882352F0BB0F40F4BF2B11F460FF04C0FE
:0E0600006F5F7F4F8F4F9F4F0895F894FFCF8D
:00000001FF
