:100000000C9434000C9446000C9446000C9446006A
:100010000C9446000C9446000C9446000C94460048
:100020000C9446000C9446000C9446000C94460038
:100030000C9446000C9446000C9446000C94460028
:100040000C9446000C946B000C9446000C944600F3
:100050000C9446000C9446000C9446000C94460008
:100060000C9446000C94460011241FBECFEFD8E03C
:10007000DEBFCDBF21E0A0E0B1E001C01D92A630FF
:10008000B207E1F70E94E9000C94C4010C9400004F
:10009000CF93DF93CDB7DEB784E290E024E230E087
:1000A000F90120812061FC0120838CE490E02CE4A4
:1000B00030E0F9012081206CFC0120838FE590E085
:1000C0002FE530E0F90120812068FC012083000049
:1000D000DF91CF9108951F920F9200905F000F92D1
:1000E00011242F933F934F935F936F937F938F933D
:1000F0009F93AF93BF93EF93FF93CF93DF93CDB7CE
:10010000DEB780910201882309F04CC08091030181
:100110008F5F8093030180910301813059F48EE455
:1001200090E0FC018081882F90E0909305018093FE
:1001300004013AC0809103018230B1F5809104013D
:1001400090910501382F22278EE490E0FC018081F8
:10015000882F90E0822B932B9093050180930401CC
:10016000809104019091050188278115944039F40C
:1001700080910401909105010E94B10110C080910D
:100180000401909105018115984049F48EE490E0B6
:1001900020910101FC01208381E0809302011092F3
:1001A000030102C0109202010000DF91CF91FF9184
:1001B000EF91BF91AF919F918F917F916F915F91DF
:1001C0004F913F912F910F9000925F000F901F90E1
:1001D0001895CF93DF93CDB7DEB70E9448000E94F9
:1001E00077018AE290E02AE230E0F90120812F7D58
:1001F000FC01208384E290E024E230E0F9012081D8
:100200002260FC01208385E290E025E230E0F901E4
:1002100020812D7FFC01208389E290E0FC01808118
:10022000882F90E080729927892B71F080910001CE
:10023000882351F49091010181E089278093010185
:1002400081E08093000110C089E290E0FC01808190
:10025000882F90E080729927892BF1F68091000118
:100260008130D1F610920001D7CFCF93DF93CDB775
:10027000DEB78CE790E02CE730E0F90120812064C4
:10028000FC0120838AE790E02AE730E0F901208131
:100290002360FC0120838AE790E02AE730E0F9013F
:1002A00020812068FC0120830000DF91CF91089518
:1002B000CF93DF93CDB7DEB78AE790E02AE730E04F
:1002C000F90120812064FC0120838AE790E0FC0191
:1002D0008081882F90E080749927892BB1F788E777
:1002E00090E0FC0180819181DF91CF910895CF93BF
:1002F000DF93CDB7DEB784E290E024E230E0F9018D
:1003000020812260FC01208380E890E020E830E03A
:10031000F90120812160FC01208381E890E021E83F
:1003200030E0F90120812860FC01208381E890E021
:1003300021E830E0F90120812260FC01208380E87F
:1003400090E020E830E0F90120812068FC01208362
:1003500088E890E0FC01118210820000DF91CF91CB
:100360000895CF93DF931F92CDB7DEB7898388E8D6
:1003700090E02981222F30E0FC01318320830000AE
:0C0380000F90DF91CF910895F894FFCF0B
:00000001FF
